:020000040800F2
:100000000005002045010008BB030008B7030008F5
:10001000B903000889020008F10D00080000000083
:100020000000000000000000000000009D0A000821
:10003000090300080000000087070008790B00088A
:100040005F0100085F0100085F0100085F01000810
:100050005F0100085F0100085F0100085F01000800
:100060005F0100085F0100085F0100085F010008F0
:100070005F0100085F0100085F0100085F010008E0
:100080005F0100085F0100085F0100085F010008D0
:100090005F0100085F0100085F0100085F010008C0
:1000A0005F0100085F0100085F0100085F010008B0
:1000B0005F0100085F0100085F0100085F010008A0
:1000C0005F0100085F0100085F0100085F01000890
:1000D0005F010008CD0B00085F0100085F01000808
:1000E0005F0100085F0100085F0100085F01000870
:1000F0005F0100085F0100085F0100085F01000860
:100100005F0100085F0100085F0100085F0100084F
:100110005F0100085F0100085F0100085F0100083F
:100120005F0100085F0100085F0100085F0100082F
:10013000DFF80CD000F05CF800480047D11300084D
:10014000000500200648804706480047FEE7FEE716
:10015000FEE7FEE7FEE7FEE7FEE7FEE7FEE7FEE777
:100160007D0B000831010008D2B201E000F8012B3C
:10017000491EFBD270470022F6E710B513460A4627
:1001800004461946FFF7F0FF204610BD2DE9F05F49
:100190000546002092469B468846064681464024F6
:1001A0001BE0284641464746224600F042F85346A7
:1001B0005A46C01A914110D311461846224600F003
:1001C00029F82D1A67EB01084F462246012000212D
:1001D00000F020F817EB00094E41201EA4F10104A5
:1001E000DFDC484631462A464346BDE8F09F000022
:1001F000064C074D06E0E06840F0010394E8070074
:1002000098471034AC42F6D3FFF796FF6C15000800
:100210008C150008202A04DB203A00FA02F10020A5
:1002200070479140C2F1200320FA03F31943904034
:100230007047202A04DB203A21FA02F0002170479F
:1002400021FA02F3D040C2F120029140084319463E
:100250007047000038B50121082000F0C5FA2020C1
:10026000ADF8000010208DF803000320054C8DF838
:1002700002006946204600F049F82021204600F09F
:1002800098F838BD000C0140FEE72DE9F0410E461C
:10029000074615460421052000F02AF80021012018
:1002A00000F0A8FD80210A2000F0F9FB002405E001
:1002B000395D092000F09EFD641CE4B2B442F7D31E
:1002C0000321012000F096FDFF24052000F0ECFA48
:1002D000641E14F0FF0401D04007F6D5222000F080
:1002E000E3FA2870212000F0DFFA6870BDE8F081A1
:1002F00070B50C46054600F0D7FA20EA04012846FE
:10030000BDE8704000F076BD70470000F0B5CA78D7
:10031000002502F00F03D20601D58A7813430A782C
:100320004FF00F0E12F0FF0F4FF001021CD00468C7
:100330000F8802FA05F63740B74211D14FEA850C13
:100340000EFA0CF724EA070703FA0CF43C43CF78C3
:10035000282F02D0482F02D002E0466100E006615B
:100360006D1C082DE4D304600C88FF2C1ED9446852
:100370005FF0000606F1080702FA07F50F882F4024
:10038000AF420FD14FEA860C0EFA0CF7BC4303FACA
:100390000CF73C43CF78282F00D14561CF78482F08
:1003A00000D10561761C082EE4D34460F0BD4161A4
:1003B000704701617047FEE7FEE7704770B50F2395
:1003C000C47801780122F4B1144C2468457804F40F
:1003D000E064C4F5E064240AC4F10406E3408478D0
:1003E000B5401C402C4301F1E021230181F8003489
:1003F000007800F01F018A404009800000F1E020F1
:10040000C0F8002170BD01F01F0082404809800043
:1004100000F1E020C0F8802170BD00000CED00E08C
:1004200003211420FFF764BF10B5142000F03CFA3C
:10043000800705D10321BDE81040142000F02FBB38
:1004400010BD70B50646082188B000240846FFF7A5
:100450004FFF00210D2000F0CDFC80210E20FFF782
:1004600047FF93208DF8040020208DF8050006A892
:1004700001AB0090022219460C2000F040F8050064
:100480000DD1002101A8425C7254425C491C5440C9
:10049000C9B20429F7D3405CA04200D002258021D4
:1004A0000E2000F0FCFA08B0284670BD30B587B0C9
:1004B0008DF804008DF80510002001A9145C0D18BA
:1004C000401CC0B2AC700628F8D300200C181A5C8F
:1004D000401CC0B222720628F8D306A800900B4632
:1004E0000C220E2000F00BF8040004D1082000F0CC
:1004F000DBF9000700D4022407B0204630BD2DE907
:10050000FF5F00270225DDF838A016468B4681469E
:10051000B8460C2805D0B9F10E0F05D112271020CE
:1005200001E077273020804647F08001022000F06C
:1005300061FC80210420FFF7DBFE0021012000F098
:1005400059FC80210A2000F0AAFA002405E01BF8DB
:100550000410092000F04EFC641CB442F7D3494655
:10056000012000F047FCB9F10C0F03D180210D20D0
:1005700000F095FA4FF44876042000F095F904460F
:10058000761E04D0E00702D114EA080FF4D08021CF
:100590000D20FFF7ADFE36B1062000F085F910F012
:1005A0001B0F0CD0022580210C2000F078FA0021CE
:1005B000012000F01FFC04B02846BDE8F09F002594
:1005C0003C40E00700D00125B9F10C0FEBD10A2027
:1005D00000F06AF904460C2000F066F910F00700FC
:1005E0004FEAC40101D008390144CAF8001024B10F
:1005F000122C04D91224002603E00124FBE7002674
:1006000005E0092000F050F903998855761CA642B0
:10061000F7D3C8E700B587B050208DF8040000205C
:100620008DF805000DF10602022101A8FFF72DFE4D
:1006300006A801AB0090042219460C20FFF75FFFCB
:1006400007B0002000BD30B50C460546082187B034
:100650000846FFF74DFE07210D2000F0CBFB0321DC
:10066000142000F01CFA06A801AB00908DF804508D
:10067000012219460C20FFF742FF10B906991029F4
:1006800002D0022007B030BD9DF8041021709DF803
:1006900005106170F6E7000070B5214D4FF400744D
:1006A00021462846FFF785FE0A2000F065FE214618
:1006B0002846FFF77CFE3C2000F044FE21462846F9
:1006C000FFF777FE4FF4FA7000F056FE0F2101207D
:1006D00000F090FB022000F035FE3D21112000F0DB
:1006E00089FB1E212D2000F085FB00212C2000F02D
:1006F00081FB8D212A2000F07DFB3E212B2000F084
:1007000079FB4021152000F075FB80213320FFF795
:10071000EFFD4021152000F06DFB002070BD0000B2
:10072000000C014010B588B093218DF804107021A1
:100730008DF8051000218DF80A1001AA5418435CA9
:10074000A370445C9DF80A30491C6340C9B28DF81F
:100750000A300429F2D3072101A8D21DFFF795FD25
:1007600008210846FFF7C4FD06A801AB0090092246
:1007700019460C20FFF7C3FE10B90699182900D0BE
:10078000022008B010BD704708B50121082000F014
:100790002BF84FF40070ADF8000010208DF8030026
:1007A00069460348FFF7B2FD024800F0B1F808BD02
:1007B000000C014000300140044A0029D16901D0F9
:1007C000014300E08143D161704700000010024006
:1007D000044A0029116901D0014300E081431161FD
:1007E0007047000000100240044A0029916901D0BE
:1007F000014300E081439161704700000010024016
:10080000044A0029D16801D0014300E08143D1604E
:10081000704700000010024030B51F494A6812F0CE
:100820000C031E4A03D0042B01D0082B21D00260F8
:100830004A680F231A4C03EA1212A35C0268DA40DA
:1008400042604B68072505EA1323E35C22FA03F3B1
:1008500083604B6805EAD323E35CDA40C2604968F1
:10086000032303EA9131231F595CB2FBF1F10161CB
:1008700030BD4A684B6802F470124FF0020413F462
:10088000803F04EB924202D04B689B0301D5054B9D
:1008900000E0024B5A43CAE70010024000127A00FF
:1008A0001800002000093D007CB500218DF80010E3
:1008B0007E2101EA400040F080008DF80400012014
:1008C00000F040FD0B4C10212046FFF770FD0A4D53
:1008D000012201A9284600F0D0F8012269462846E5
:1008E00000F0B0F810212046FFF763FD9DF80000EE
:1008F0007CBD000000080140003001400029018853
:1009000002D041F0400101E021F040010180704738
:1009100010B504461C4886B084424FF0010104D152
:1009200041F20400FFF760FF06E00820FFF75CFFDC
:1009300001218803FFF740FF00211020ADF80C00D3
:10094000ADF800104FF48270ADF80200ADF804105D
:10095000ADF808100720ADF80610ADF80A10ADF894
:100960000E10ADF810006946204600F04FF8204602
:1009700000F00CF80121204600F075F80121204616
:10098000FFF7BCFF06B010BD00300140F8B51C4BAE
:10099000032118221024984216D1E020ADF800005F
:1009A0008DF80210174D8DF8032069462846FFF791
:1009B000ADFCADF800408DF8034069462846FFF7CE
:1009C000A5FC1021284617E04FF46040ADF8000068
:1009D0008DF802100C4E8DF8032069463046FFF763
:1009E00095FCB514ADF800508DF8034069463046CB
:1009F000FFF78CFC29463046FFF7DBFCF8BD000012
:100A00000030014000080140000C014030B5028870
:100A10004C8802F441530A88CD8822438C882C43A9
:100A200022430C8922434C8922438C892243CC895E
:100A300022431A430280828B22F400628283098A55
:100A4000018230BD10B5FF2309E083810489A4072A
:100A5000FCD50489E407FCD0848901F8014B521EBF
:100A6000F3D2002010BD0029818802D041F004019A
:100A700001E021F00401818070470BE003899B07AE
:100A8000FCD511F8013B83810389DB07FCD0038986
:100A900003818389521EF1D200207047704770B5E0
:100AA0000C460546FFF700FF40EA04012846BDE872
:100AB000704000F09FB900000CB50021264801915C
:100AC0000091026842F4803202604FF4A063026831
:100AD00002F400320092019A521C0192009A12B95B
:100AE000019A9A42F3D10268920333D50121009111
:100AF0001A490A6842F010020A600A6822F00302EA
:100B00000A600A6842F002020A6041684160416876
:100B10004160416841F480614160416821F47C1189
:100B20004160416841F4E8114160016841F0807121
:100B3000016001688901FCD5416821F00301416031
:100B4000416841F0020141604168C1F3810102291D
:100B5000FAD10CBD00910CBD0010024000200240F3
:100B60004FF0E0210428086903D020F00400086158
:100B7000704740F00400FAE7704700000F4810B5D6
:100B8000016841F00101016041680D4A1140416076
:100B900001680C4A11400160016821F48021016064
:100BA000416821F4FE0141604FF41F018160FFF7AD
:100BB00083FF05494FF00060086010BD001002403F
:100BC0000000FFF8FFFFF6FE08ED00E070B5154CE1
:100BD00040F22551204600F076F800280ED020463D
:100BE00000F0FEF8C2B2104801880B0406D44C0491
:100BF0004FF0000306D50A2A01D0038070BD41F4EE
:100C000000410DE00D2A09D0C1F30D04074D491C28
:100C100089B22A550180C729EFD870BD41F48041BF
:100C2000018070BD003801402E00002038000020F7
:100C30000029818902D041F4005101E021F40051E2
:100C400081817047174910B588420AD101218C0370
:100C50002046FFF7D5FD2046BDE810400021FFF7F4
:100C6000CFBD1149884202D101214C0410E00F4947
:100C7000884202D101218C040AE00D49884202D148
:100C80000121CC0404E00B4988420AD101210C0562
:100C90002046FFF79DFD2046BDE810400021FFF7EC
:100CA00097BD10BD0038014000440040004800409E
:100CB000004C0040005000400246002012880A42CA
:100CC00000D00120704730B501F01F02012400253B
:100CD000C1F3421304FA02F2012B0FD0022B0FD002
:100CE000838A4FEA11210088134204FA01F400EAD2
:100CF000040001D000B10125284630BD8389F0E70A
:100D0000038AEEE710B5C1F3421301F01F0401217D
:100D1000A140012B07D0022B07D01430002A026813
:100D200005D00A4304E00C30F8E71030F6E78A43B8
:100D3000026010BD30B50446008A85B00D464CF601
:100D4000FF710840E98801432182A1894EF6F31022
:100D50000140A8882A8910436A890A431043A08168
:100D6000A08A4FF6FF410840A9890143A182684645
:100D7000FFF752FD1948844201D1039800E0029820
:100D8000A189090400EBC00101EB0010296801D51D
:100D9000490000E08900B0FBF1F06422B0FBF2F101
:100DA00009010B096FF018056B4300EB8300A38961
:100DB0001D044FF0320306D503EBC000B0FBF2F088
:100DC00000F0070005E003EB0010B0FBF2F000F0CC
:100DD0000F000843208105B030BD000000380140FD
:100DE0008088C0F308007047C1F308018180704714
:100DF000FEE7000038B5002200927E2202EA4000A1
:100E00008DF800008DF80110012000F09BFA074CCE
:100E100010212046FFF7CBFA022269460448FFF76B
:100E20002CFE10212046FFF7C4FA38BD000801400F
:100E3000003001400FB4054B10B503A9044A0298D5
:100E400000F02CF810BC5DF814FB0000AD13000896
:100E5000300000200FB4084B10B504A902AA039873
:100E600000F01CF8044602A9002000F048FA2046D1
:100E700010BC5DF814FB0000FF12000802E008C877
:100E8000121F08C1002AFAD170477047002001E004
:100E900001C1121F002AFBD1704700002DE9FF4F4E
:100EA0008DB00F460546002606E025280BD0DDE96B
:100EB0000F1290476D1C761C28780028F5D111B0D0
:100EC0003046BDE8F08F0024A246A1460122EC493D
:100ED00000E0044315F8013F203B02FA03F008420A
:100EE000F7D128782A2810D06FF02F022878A0F1A7
:100EF0003001092914D80AEB8A0102EB410144F0C0
:100F0000020400EB010A6D1CF0E701CF5FEA000A62
:100F100003D544F40054CAF1000A44F002046D1CE5
:100F200028782E2817D115F8010F44F004042A2838
:100F30000ED06FF02F022878A0F1300109290AD8CD
:100F400009EB890102EB410100EB01096D1CF2E79D
:100F500057F8049B6D1C28786C280FD006DC4C28B1
:100F600017D068280DD06A2814D104E0742810D056
:100F70007A280FD10DE044F400140AE044F4801400
:100F800001E044F440146978814202D104F58014F0
:100F90006D1C6D1C2A786E2A1FD00CDC632A31D0A0
:100FA00004DC002A8BD0582A11D1A3E0642A68D02F
:100FB000692A0CD165E0732A2ED004DC6F2A73D025
:100FC000702A04D19BE0752A6FD0782A6ED0104623
:100FD000DDE90F129047761C50E1C4F3025002285D
:100FE00006D0032809D0042801CF09D0066045E1C6
:100FF00001CFF117C0E9006140E101CF06803DE17A
:1010000006703BE117F8040B8DF8000000208DF806
:101010000100EB46012003E057F804BB4FF0FF301E
:1010200061074FF0000102D40DE008F1010188468C
:1010300049450FDA8045F8DB1BF808100029F4D188
:1010400008E008F1010188468142FADB1BF808102C
:101050000029F6D1DDE90F23AAEB080081462146DD
:1010600000F036F9304400EB080604E0DDE90F1229
:101070001BF8010B9047B8F10108F7D2214648460A
:10108000F7E00A21C4F302534FF0000B0891022B42
:1010900004D001CFC117032B09D00AE0FF1D27F0B0
:1010A0000707F7E8020108E032E01FE020E000B2A5
:1010B000C117042B01D140B2C117031E71F1000307
:1010C00007DA4FF0000CD0EB0C006CEB01012D2384
:1010D00002E0230504D52B238DF82430012303E0FF
:1010E000E30701D02023F7E7984658E00A2110E0F3
:1010F00010210EE010204FF0000B08900CE01021A2
:101100004FF0000B44F004044FF00809089103E08D
:1011100008214FF0000B0891C4F30253022B04D0B6
:1011200001CF0021032B06D006E0FF1D27F00707A3
:10113000F7E8020103E080B2042B00D1C0B24FF007
:10114000000823072BD5702A07D0DDF820C08CF0CB
:10115000100C5CEA0B0C05D00EE040238DF8243017
:10116000012308E050EA010306D030238DF8243033
:101170008DF8252002239846DDF820C08CF0080C5D
:101180005CEA0B0C0BD150EA010301D1630706D5D1
:1011900030238DF824304FF00108A9F10109582AB5
:1011A00004D038A20B9208AA0A920BE03AA2F9E7FF
:1011B0005B46089AFEF7EAFF0B9B9B5C0A9A521E5D
:1011C0000A92137050EA0102F2D10A98ADEB0000C6
:1011D00000F1200B600702D524F4803401E04FF0C9
:1011E0000109D94502DDA9EB0B0000E0002000EB6E
:1011F0000B0141440890AAEB010AE00306D4DDE9A3
:101200000F232146504600F063F806444FF00009D2
:1012100008E009A911F80900DDE90F12904709F16A
:101220000109761CC145F4DBE0030CD5DDE90F2391
:101230002146504600F04CF8064404E0DDE90F1268
:1012400030209047761C0899481E08900029F5DC4C
:1012500008E00A980A990078491C0A91DDE90F1202
:101260009047761CBBF10001ABF1010BF1DC21468C
:101270005046DDE90F2300F019F806446D1C1BE60B
:10128000092801003031323334353637383961625C
:101290006364656600000000303132333435363720
:1012A0003839414243444546000000002DE9F041F1
:1012B000044600251E461746880404D405E0394636
:1012C0002020B0476D1C641EF9D52846BDE8F0818A
:1012D0002DE9F041044600251E469046C80301D57D
:1012E000302700E02027880404D505E04146384631
:1012F000B0476D1C641EF9D52846BDE8F0810A6828
:10130000531C0B601070704710B56FF00400FFF7AE
:1013100027FC094809490068B0FBF1F0C1B2084850
:1013200001EB41020170C2EBC1114FF6FF7202EAFC
:10133000C101418010BD00000000002000127A00B1
:10134000340000200B49498848434FF0E0214861B0
:1013500000228A61086940F0010008610869C3073A
:1013600001D0C003FAD5086920F0010008618A6144
:1013700070470000340000200B49097848434FF0C3
:10138000E021486100228A61086940F0010008619B
:101390000869C30701D0C003FAD5086920F001002D
:1013A00008618A61704700003400002070B5074D65
:1013B000044640212846FFF77FFC0028F9D0E1B21F
:1013C0002846FFF711FD204670BD0000003801409F
:1013D0000EB5FFF799FFFFF7D1FB4FF4165000F061
:1013E00073F8FEF737FFFFF7CFF9FFF755F9FFF76F
:1013F00017F80220FFF7A6FFFFF716F800250C4CA0
:1014000001266946062000F021F80028F9D1C4F829
:10141000AC513220FFF796FFC4F8AC616A4605A1D3
:101420000648FFF717FD054905A0FFF703FDE8E7AC
:101430000000214225303273000000002800002007
:10144000626F6F6B25730D0A000000001FB50C461C
:1014500019A1D1E90001CDE901010A20FFF772FFCE
:1014600003A92620FFF7EFF8002817D10A20FFF77D
:1014700069FF6846FEF7E5FF28B99DF8012010A135
:101480002046FFF7E7FC6846FFF74CF96B4601AAD8
:1014900005216020FFF70AF810B1022004B010BD4A
:1014A000012204216846FEF75FFE0F20FFF74AFF86
:1014B000FFF7B0F80020F1E7FFFFFFFFFFFF00009C
:1014C0002530325800000000F0B5054687B00121F4
:1014D00044F20400FFF788F9224E3046FFF7B2FBD2
:1014E0007015ADF8100003248DF8124018201E4F1F
:1014F0008DF8130004A93846FEF708FF3015ADF843
:10150000100004208DF8130004A93846FEF7FEFEF3
:101510000020ADF80400ADF80600ADF80800ADF805
:101520000C000C20ADF80A00009569463046FFF724
:1015300001FC25208DF814008DF815408DF816401B
:1015400001208DF8170005A8FEF738FF012240F2B0
:1015500025513046FFF7D6FB01213046FFF768FBE7
:1015600007B0F0BD00380140000801408C150008AC
:1015700000000020380000007C0E0008C4150008A0
:1015800038000020C80400008C0E000800A24A04A5
:101590000000000000000000010203040607080923
:1015A0000204060800000000010203040102030413
:1015B000060708090000000000000000000000000D
:0415C0000000000027
:0400000508000131BD
:00000001FF
